:020000040000FA
:06000000B8EF04F012004D
:020006000000F8
:08000800D9CFE6FFE1CFD9FFDB
:10001000E65294929494948C949E93928B848B82C7
:10002000E66AE66AE66A2CEC04F0E552E552E5522F
:10003000030EE66E98EC04F0E5521BD8DF6EDF503D
:1000400003E083808088FFD70DDAE552E552E7CFE1
:10005000D9FF1200D9CFE6FFE1CFD9FFFE0EDB506A
:10006000C96EC7A0FED7C95000D0E552E7CFD9FF6F
:100070001200D9CFE6FFE1CFD9FF080EE126180E16
:10008000DF6E010EDB6A290EF36E020EF3CFDBFF8B
:10009000350EF36E030EF3CFDBFF010EF36E040E8D
:1000A000F3CFDBFF050EDB6A8B92300EE66ED2DFFC
:1000B000E552E76E060EE7CFDBFFDFCFE6FFCADFD4
:1000C000E552010EDBCFE6FFC5DFE552020EDBCFC6
:1000D000E6FFC0DFE552030EDBCFE6FFBBDFE552F4
:1000E000040EDBCFE6FFB6DFE5528B828B92100E5B
:1000F000E66EB0DFE552E76E060EE7CFDBFF070ED8
:10010000DB6A050EF36E070EDBCFF4FFF350F45CF1
:100110001FE2E66A9FDFE552E76E050EE7CFDBFFE1
:100120000000D9CF02F0DACF03F0070EDB500F0149
:100130000224E96E000E0320EA6EEF50F36E050E06
:10014000DB50F35C02E0010E06D0070EDB2AD9D7A4
:100150008B82000E00D0026E080EE15C02E2E16AC2
:10016000E552E16E0250E552E7CFD9FF1200D9CF38
:10017000E6FFE1CFD9FF020EE126DF6A100EDF5C59
:100180000FE2DF50E76EFD0EDBCFE9FFFE0EDBCFA7
:10019000EAFFE750E926000EEA22EF6ADF2AEED7EF
:1001A0008B92610EE66E56DFE552010EDB6A100E91
:1001B000F36E010EDBCFF4FFF350F45C17E2E66A56
:1001C00049DFE552E66E010EDB50E76EFD0EDBCF38
:1001D000E9FFFE0EDBCFEAFFE750E926000EEA2238
:1001E000E552E750EF6E010EDB2AE1D78B828B924E
:1001F000E20EE66E2FDFE5528B828B92270EE66EC3
:1002000029DFE552400EE66E25DFE5528B82020EB5
:10021000E15C02E2E16AE552E16EE552E7CFD9FF27
:100220001200D9CFE6FFE1CFD9FF030EE1268B9272
:10023000270EE66E0FDFE5527E0EE66E0BDFE5520F
:100240008B828B92200EE66E05DFE5523A0EE66E4B
:1002500001DFE5528B828B92E10EE66EFBDEE5520A
:100260008B828B92A00EE66EF5DEE552DF6A100EF1
:10027000DF5C12E2DF50E76EFD0EDBCFE9FFFE0E22
:10028000DBCFEAFFE750E926000EEA22EF50E66EE8
:10029000E1DEE552DF2AEBD78B828B84020EE66E1D
:1002A000C6EC04F0E5528B94030EE15C02E2E16AD5
:1002B000E552E16EE552E7CFD9FF1200D9CFE6FF54
:1002C000E1CFD9FF020EE1268B928B94200EE66ED1
:1002D000C1DEE552390EE66EBDDEE5528B828B92B1
:1002E000210EE66EB7DEE552E66AB4DEE5528B8299
:1002F0008B92230EE66EAEDEE552030EE66EAADEAC
:10030000E5528B828B92260EE66EA4DEE552270E16
:10031000E66EA0DEE5528B828B92310EE66E9ADE9F
:10032000E552100EE66E96DEE5528B828B92250E1C
:10033000E66E90DEE552840EE66E8CDEE5528B8230
:100340008B92300EE66E86DEE552180EE66E82DE89
:10035000E552E66A7FDEE552290EE66E7BDEE55267
:10036000350EE66E77DEE552010EE66E73DEE5527F
:100370008B828B92200EE66E6DDEE5523B0EE66EB2
:1003800069DEE5528B828B84020EE15C02E2E16A57
:10039000E552E16EE552E7CFD9FF1200D9CFE6FF73
:1003A000E1CFD9FF060EE1268B948B92200EE66EEC
:1003B00051DEE552380EE66E4DDEE5528B828B92B1
:1003C000240EE66E47DEE552E66A44DEE5528B8295
:1003D0008B92230EE66E3EDEE552030EE66E3ADEAB
:1003E000E5528B828B92260EE66E34DEE552270EA6
:1003F000E66E30DEE5528B828B92250EE66E2ADEAB
:10040000E552840EE66E26DEE5528B828B92300E2C
:10041000E66E20DEE552180EE66E1CDEE552E66A58
:1004200019DEE552290EE66E15DEE552350EE66E52
:1004300011DEE552010EE66E0DDEE5528B828B92E7
:10044000210EE66E07DEE552E66A04DEE5528B8297
:10045000060EE15C02E2E16AE552E16EE552E7CFA9
:10046000D9FF12008B928B94200EE66EF3DDE552DD
:10047000390EE66EEFDDE5528B828B92210EE66E31
:10048000E9DDE552E66AE6DDE5528B828B92230ECA
:10049000E66EE0DDE552030EE66EDCDDE5528B82B2
:1004A0008B92240EE66ED6DDE552E66AD3DDE55288
:1004B0008B828B92250EE66ECDDDE552840EE66EC4
:1004C000C9DDE5528B828B92260EE66EC3DDE552C6
:1004D000270EE66EBFDDE5528B828B92310EE66E03
:1004E000B9DDE552100EE66EB5DDE5528B828B92DA
:1004F000300EE66EAFDDE552180EE66EABDDE5526E
:10050000E66AA8DDE552290EE66EA4DDE552350E59
:10051000E66EA0DDE552010EE66E9CDDE5528B82B3
:100520008B922A0EE66E96DDE552180EE66E92DD8F
:10053000E552E66A8FDDE552290EE66E8BDDE55267
:10054000350EE66E87DDE552010EE66E83DDE5527F
:100550008B828B92200EE66E7DDDE5523B0EE66EC1
:0A05600079DDE5528B828B841200D6
:06056A00010EE66E98ECA4
:1005700004F0E552020EE66EC6EC04F0E552020EFF
:10058000E66ED4EC04F0E55200000000000000002C
:1005900000000000000000001200060EE66EC6EC2F
:1005A00004F0E552010EE66ED4EC04F0E5520000D2
:1005B0001200010EE66E98EC04F0E552020EE66EB3
:1005C000C6EC04F0E552020EE66ED4EC04F0E552FF
:1005D0000000000000000000000000001200D9CF61
:1005E000E6FFE1CFD9FF020EE126DE6ADD6AFD0EED
:1005F000DBCF02F0FE0EDBCF03F0DE500224E96E0B
:10060000DD500320EA6EEF5016E0FD0EDBCF02F066
:10061000FE0EDBCF03F0DE500224E96EDD50032036
:10062000EA6EEF50E66E65EC04F0E552DF2A010E4B
:1006300001E3DB2ADCD7020EE15C02E2E16AE5526B
:10064000E16EE552E7CFD9FF1200D9CFE6FFE1CF47
:10065000D9FF110EE126D9CFE9FFDACFEAFF6E0EFE
:10066000EE6E520EEE6E460EEE6E320EEE6E340EE4
:10067000EE6E4C0EEE6E300EEE6E310EEE6E200E05
:10068000EE6E520EEE6E610EEE6E640EEE6E690E42
:10069000EE6E6F0EEE6E0A0EEE6E0D0EEE6EEE6AE2
:1006A00095909298839080985EEC04F0D9CFE6FF05
:1006B000DACFE6FF94DFE552E55204EC00F00E0ECF
:1006C000C16E0F0EB46E9396819696948494110E1B
:1006D000E15C02E2E16AE552E16EE552E7CFD9FF63
:1006E0001200D9CFE6FFE1CFD9FF230EE126210E7C
:1006F000DB6A220EDB6AA9DF80A625D082BC21D06E
:1007000083808088D950110FE66E000EDA20E66EE5
:10071000B7EC00F0E552E552D950110FE66E000E2D
:10072000DA20E66E5CDFE552E5520A0EE66E98ECE2
:1007300004F0E55283908098210EDB2A220E01E31B
:10074000DB2ADCD730D0DF6A100EDF5C14E2300E1B
:10075000DF24E66ED950010F026EDACF03F0DF50CE
:100760000F010224E96E000E0320EA6EE552E75005
:10077000EF6EDF2AE9D783808088D950010FE66EBB
:10078000000EDA20E66E11EC01F0E552E552E66863
:1007900081EC04F0E55283908098E66881EC04F0E7
:1007A000E5520000E8D7230EE15C02E2E16AE5527F
:0A07B000E16EE552E7CFD9FF120019
:0607BA00060EF66E000EB3
:1007C000F76E000EF86E00010900F550656F090024
:1007D000F550666F03E1656701D03DD00900F55023
:1007E000606F0900F550616F0900F550626F0900F4
:1007F0000900F550E96E0900F550EA6E090009009C
:100800000900F550636F0900F550646F0900090095
:10081000F6CF67F0F7CF68F0F8CF69F060C0F6FF69
:1008200061C0F7FF62C0F8FF0001635302E1645347
:1008300007E00900F550EE6E6307F8E26407F9D7A8
:1008400067C0F6FF68C0F7FF69C0F8FF00016507E1
:08085000000E665BBFD7120029
:08085800D9CFE6FFDACFE6FF7D
:10086000E1CFD9FFE2CFDAFF3F0EC716C66AFD0E11
:10087000DB50C612FB0EDB50C712FC0EDB50030A26
:1008800009E0010A04E0020A06E1C78C04D0C78C23
:10089000C68801D0C688FD0EDB50050A03E0010AB8
:1008A00003E1928A938201D093929380949EC68AA8
:0C08B000E552E5CFDAFFE7CFD9FF1200D8
:0408BC000F019398FD
:1008C00081880F01938A818A12000001FF0EE3CF15
:1008D0006AF0090E6B6FD8900F0171EF04F0000100
:1008E0006A330F01D8A08198D8B08188B5EC02F0A6
:1008F00000016B2F6FEF04F00F018188B5EC02F05F
:020900001200E3
:0E090200FF0EE350056EEF0E01D0F30EE76E10
:10091000E72E88EF04F00C0E046EE76AE72E8EEFE8
:1009200004F0042E8DEF04F0052E86EF04F0120083
:10093000FF0EE350056E480E01D04C0EE76EE72E19
:10094000FED7E76AE72EFED7052EF7D70000120084
:10095000000EF36E00EE00F0080E01D81200EA60FF
:1009600002D0EE6AFCD7F350E9601200EE6AFCD7C1
:1009700013EE00F023EE00F0F86A019CDDEC03F0CA
:0C098000DFEC04F071EC03F0FBD7120078
:04098C00FF0EE35027
:10099000056E1B0E00D001D0200EE76EE72EFED7AD
:0809A000052EFAD700D0120069
:0809A800FF0EE350E84E1200BF
:0E09B000000000D000D000D0E82EFAD71200D0
:0209BE00120025
:020000040030CA
:0100000024DB
:010001000EF0
:010002003FBE
:010003001EDE
:010005008179
:010006008178
:010008000FE8
:01000900C036
:01000A000FE6
:01000B00E014
:01000C000FE4
:01000D0040B2
:00000001FF
